:100000000C945C000C9479000C9479000C947900A9
:100010000C9479000C9479000C9479000C9479007C
:100020000C9479000C9479000C9479000C9479006C
:100030000C9479000C9479000C9479000C9479005C
:100040000C94AA000C9479000C9479000C9479001B
:100050000C9479000C9479000C9479000C9479003C
:100060000C9479000C947900000000080002010053
:100070000003040700000000000000000102040863
:100080001020408001020408102001020408102002
:10009000040404040404040402020202020203032E
:1000A0000303030300000000250028002B000000CC
:1000B0000000240027002A0011241FBECFEFD8E043
:1000C000DEBFCDBF11E0A0E0B1E0E6E4F4E002C0A5
:1000D00005900D92A230B107D9F721E0A2E0B1E07E
:1000E00001C01D92AB30B207E1F70E949B000C9457
:1000F00021020C94000061E0809100010C94B60193
:10010000CF93DF93C0E0D1E061E088810E94F201EB
:1001100068EE73E080E090E00E94190160E0888161
:100120000E94F20168EE73E080E090E0DF91CF91F1
:100130000C94190108950E9452010E949A000E9495
:100140007B00C0E0D0E00E9480002097E1F30E9495
:100150000000F9CF1F920F920FB60F9211242F9328
:100160003F938F939F93AF93BF938091030190919F
:100170000401A0910501B09106013091020123E034
:10018000230F2D3758F50196A11DB11D20930201B3
:100190008093030190930401A0930501B09306019D
:1001A0008091070190910801A0910901B0910A0185
:1001B0000196A11DB11D8093070190930801A093A2
:1001C0000901B0930A01BF91AF919F918F913F9127
:1001D0002F910F900FBE0F901F90189526E8230FB8
:1001E0000296A11DB11DD2CF3FB7F89480910701AF
:1001F00090910801A0910901B0910A0126B5A89B30
:1002000005C02F3F19F00196A11DB11D3FBFBA2FA8
:10021000A92F982F8827BC01CD01620F711D811D68
:10022000911D42E0660F771F881F991F4A95D1F7ED
:1002300008958F929F92AF92BF92CF92DF92EF92EA
:10024000FF926B017C010E94F4004B015C01C11420
:10025000D104E104F104E9F00E9420020E94F400BC
:10026000681979098A099B09683E734081059105DF
:1002700070F321E0C21AD108E108F10888EE880E77
:1002800083E0981EA11CB11CC114D104E104F10447
:1002900029F7FF90EF90DF90CF90BF90AF909F90A5
:1002A0008F900895789484B5826084BD84B5816010
:1002B00084BD85B5826085BD85B5816085BDEEE66E
:1002C000F0E0808181608083E1E8F0E0108280814D
:1002D00082608083808181608083E0E8F0E08081BB
:1002E00081608083E1EBF0E0808184608083E0EBDB
:1002F000F0E0808181608083EAE7F0E080818460C3
:10030000808380818260808380818160808380811E
:10031000806880831092C1000895833081F028F4B2
:10032000813099F08230A9F008958730A9F08830A3
:10033000C9F08430B1F4809180008F7D03C080913A
:1003400080008F7780938000089584B58F7784BD77
:10035000089584B58F7DFBCF8091B0008F77809317
:10036000B00008958091B0008F7DF9CFCF93DF93D7
:1003700090E0FC01E458FF4F249180579F4FFC010F
:1003800084918823C9F090E0880F991FFC01E25501
:10039000FF4FA591B491FC01EC55FF4FC591D4914D
:1003A00061110DC09FB7F8948C91209582238C9396
:1003B0008881282328839FBFDF91CF9108956230E1
:1003C00051F49FB7F8943C91822F809583238C93AE
:1003D000E8812E2BEFCF8FB7F894EC912E2B2C9336
:1003E0008FBFEACF1F93CF93DF93282F30E0F9011F
:1003F000E859FF4F8491F901E458FF4FD491F90176
:10040000E057FF4FC491CC23A9F0162F81110E9411
:100410008D01EC2FF0E0EE0FFF1FEC55FF4FA59183
:10042000B4918FB7F894EC91111108C0D095DE23E8
:10043000DC938FBFDF91CF911F910895DE2BF8CF12
:060440000895F894FFCFBF
:020446000D00A7
:00000001FF
