:100000000C945D000C9485000C9485000C94850084
:100010000C9485000C9485000C9485000C9485004C
:100020000C9485000C9485000C9485000C9485003C
:100030000C9485000C9485000C9485000C9485002C
:100040000C9436030C9485000C9440020C947202BC
:100050000C9485000C9485000C9485000C9485000C
:100060000C9485000C94850000000008000201003B
:100070000003040700000000000000000102040863
:100080001020408001020408102001020408102002
:10009000040404040404040402020202020203032E
:1000A0000303030300000000250028002B000000CC
:1000B0000000240027002A00A20211241FBECFEF57
:1000C000D8E0DEBFCDBF11E0A0E0B1E0EEE5FFE09B
:1000D00002C005900D92A433B107D9F722E0A4E342
:1000E000B1E001C01D92AA32B207E1F710E0CDE500
:1000F000D0E004C02197FE010E94CF04CC35D10787
:10010000C9F70E9427030C94AD070C940000CF930D
:10011000DF9326E040E855E260E070E084E891E09B
:100120000E94DE01C0E0D1E061E089910E944204BA
:1001300081E0C530D807C1F7DF91CF910895DF92F4
:10014000EF92FF920F931F93CF93DF93C0E0D1E024
:1001500095E0E92E91E0F92E04E311E0D99060E0FA
:100160008D2D0E947E041F92DF92FF92EF921F93CB
:100170000F930E94D50464E371E084E891E00E944B
:100180000F0364EF71E080E090E00E94A5030F9000
:100190000F900F900F900F900F9081E0C530D8070F
:1001A000E9F6C0E0D1E081E1E82E81E0F82E04E339
:1001B00011E0D99061E08D2D0E947E041F92DF92A4
:1001C000FF92EF921F930F930E94D50464E371E0B6
:1001D00084E891E00E940F0364EF71E080E090E01A
:1001E0000E94A5030F900F900F900F900F900F900B
:1001F00081E0C530D807E9F6DF91CF911F910F91CB
:10020000FF90EF90DF900895FC01918D228D892F52
:1002100090E0805C9F4F821B91098F73992708950E
:10022000FC01918D828D981731F0828DE80FF11DC0
:10023000858D90E008958FEF9FEF0895FC01918DDB
:10024000828D981761F0A28DAE0FBF2FB11D5D9604
:100250008C91928D9F5F9F73928F90E008958FEFA6
:100260009FEF0895FC01538D448D252F30E0842F9E
:1002700090E0821B930B541710F0CF9608950197CE
:10028000089588E992E0892B49F080E090E0892B7D
:1002900029F00E94980281110C9400000895FC013D
:1002A000A48DA80FB92FB11DA35ABF4F2C91848DD7
:1002B00090E001968F739927848FA689B7892C9334
:1002C000A089B1898C91837080648C93938D848D87
:1002D000981306C00288F389E02D80818F7D80838A
:1002E0000895CF93DF93EC01888D8823B9F0AA8914
:1002F000BB89E889F9898C9185FD03C0808186FDE1
:100300000DC00FB607FCF7CF8C9185FFF2CF80812F
:1003100085FFEDCFCE010E944F01E9CFDF91CF9154
:100320000895EF92FF920F931F93CF93DF93EC0109
:1003300081E0888F9B8D8C8D98131AC0E889F9898C
:10034000808185FF15C09FB7F894EE89FF8960838F
:10035000E889F98980818370806480839FBF81E010
:1003600090E0DF91CF911F910F91FF90EF90089552
:10037000F62E0B8D10E00F5F1F4F0F731127E02E2D
:100380008C8D8E110CC00FB607FCFACFE889F98965
:10039000808185FFF5CFCE010E944F01F1CFEB8D1B
:1003A000EC0FFD2FF11DE35AFF4FF0829FB7F89439
:1003B0000B8FEA89FB8980818062CFCFCF92DF9259
:1003C000EF92FF921F93CF93DF93EC016A017B01C1
:1003D000122FE889F98982E08083C11481EED80662
:1003E000E104F104A1F060E079E08DE390E0A70181
:1003F00096010E94AD0421503109410951095695D9
:10040000479537952795211580E1380798F0E889B9
:10041000F989108260E874E88EE190E0A701960106
:100420000E94AD0421503109410951095695479563
:1004300037952795EC85FD853083EE85FF852083F4
:10044000188EEC89FD891083EA89FB89808180619F
:100450008083EA89FB89808188608083EA89FB89BF
:10046000808180688083EA89FB8980818F7D808399
:10047000DF91CF911F91FF90EF90DF90CF90089583
:100480001F920F920FB60F9211242F938F939F9369
:10049000EF93FF93E0919401F09195018081E091B9
:1004A0009A01F0919B0182FD1BC0908180919D017A
:1004B0008F5F8F7320919E01821741F0E0919D0123
:1004C000F0E0EC57FE4F958F80939D01FF91EF91E7
:1004D0009F918F912F910F900FBE0F901F901895A5
:1004E0008081F4CF1F920F920FB60F9211242F9399
:1004F0003F934F935F936F937F938F939F93AF93AC
:10050000BF93EF93FF9384E891E00E944F01FF9126
:10051000EF91BF91AF919F918F917F916F915F917B
:100520004F913F912F910F900FBE0F901F901895F4
:1005300084E891E00E94040121E0892B09F420E085
:10054000822F0895E4E8F1E01382128288EE93E0AE
:10055000A0E0B0E084839583A683B78382E291E034
:100560009183808385EC90E09587848784EC90E08C
:100570009787868780EC90E0918B808B81EC90E070
:10058000938B828B82EC90E0958B848B86EC90E051
:10059000978B868B118E128E138E148E0895AF92C8
:1005A000BF92CF92DF92EF92FF920F931F93CF9360
:1005B000DF936C017B018B01040F151FEB015E01C2
:1005C000AE18BF08C017D10759F06991D601ED9157
:1005D000FC910190F081E02DC6010995892B79F7F6
:1005E000C501DF91CF911F910F91FF90EF90DF90A8
:1005F000CF90BF90AF900895FB0101900020E9F7E4
:100600003197AF01461B570BDC01ED91FC91028045
:10061000F381E02D099460E371E00C94FC020F93E8
:100620001F93CF93DF938C01D0E0C0E0611571057B
:1006300019F00E94FC02EC01C8010E940B038C0F10
:100640009D1FDF91CF911F910F91089508950E94F2
:10065000DE030E9426030E948700C1E4D1E00E94CD
:100660009F002097E1F30E944101F9CF1F920F9262
:100670000FB60F9211242F933F938F939F93AF93B5
:10068000BF938091220290912302A0912402B09105
:1006900025023091210223E0230F2D3758F50196D2
:1006A000A11DB11D20932102809322029093230269
:1006B000A0932402B09325028091260290912702F4
:1006C000A0912802B09129020196A11DB11D80932D
:1006D000260290932702A0932802B0932902BF918B
:1006E000AF919F918F913F912F910F900FBE0F90DF
:1006F0001F90189526E8230F0296A11DB11DD2CF99
:100700003FB7F8948091260290912702A091280289
:10071000B091290226B5A89B05C02F3F19F001967C
:10072000A11DB11D3FBFBA2FA92F982F8827BC014B
:10073000CD01620F711D811D911D42E0660F771F73
:10074000881F991F4A95D1F708958F929F92AF9273
:10075000BF92CF92DF92EF92FF926B017C010E94D9
:1007600080034B015C01C114D104E104F104E9F000
:100770000E94AC040E948003681979098A099B09C8
:10078000683E73408105910570F321E0C21AD108DB
:10079000E108F10888EE880E83E0981EA11CB11CC8
:1007A000C114D104E104F10429F7FF90EF90DF9028
:1007B000CF90BF90AF909F908F900895789484B51C
:1007C000826084BD84B5816084BD85B5826085BD4D
:1007D00085B5816085BDEEE6F0E080818160808333
:1007E000E1E8F0E010828081826080838081816016
:1007F0008083E0E8F0E0808181608083E1EBF0E0DD
:10080000808184608083E0EBF0E080818160808380
:10081000EAE7F0E080818460808380818260808369
:100820008081816080838081806880831092C10094
:100830000895833081F028F4813099F08230A9F056
:1008400008958730A9F08830C9F08430B1F48091E0
:1008500080008F7D03C0809180008F77809380001F
:10086000089584B58F7784BD089584B58F7DFBCFBF
:100870008091B0008F778093B00008958091B00090
:100880008F7DF9CFCF93DF9390E0FC01E458FF4FC9
:10089000249180579F4FFC0184918823C9F090E0F8
:1008A000880F991FFC01E255FF4FA591B491FC01FF
:1008B000EC55FF4FC591D49161110DC09FB7F894CD
:1008C0008C91209582238C938881282328839FBF35
:1008D000DF91CF910895623051F49FB7F8943C9125
:1008E000822F809583238C93E8812E2BEFCF8FB7B7
:1008F000F894EC912E2B2C938FBFEACF1F93CF93BC
:10090000DF93282F30E0F901E859FF4F8491F90176
:10091000E458FF4FD491F901E057FF4FC491CC2325
:10092000A9F0162F81110E941904EC2FF0E0EE0FB0
:10093000FF1FEC55FF4FA591B4918FB7F894EC9140
:10094000111108C0D095DE23DC938FBFDF91CF91CA
:100950001F910895DE2BF8CF0895A1E21A2EAA1B4D
:10096000BB1BFD010DC0AA1FBB1FEE1FFF1FA2175F
:10097000B307E407F50720F0A21BB30BE40BF50B5C
:10098000661F771F881F991F1A9469F760957095E5
:10099000809590959B01AC01BD01CF010895EE0FAC
:1009A000FF1F0590F491E02D0994AEE0B0E0EBED6F
:1009B000F4E00C9484070D891E8986E08C831A83E9
:1009C00009838FEF9FE79E838D83AE01475E5F4F64
:1009D0006F89788DCE0101960E94F8042F813885A9
:1009E000020F131FF80110822E96E4E00C94A0076A
:1009F000ABE0B0E0EEEFF4E00C9476077C013B0155
:100A00008A01FC0117821682838181FFC8C1CE0151
:100A100001965C01F7019381F30193FD859193FFAA
:100A200081913F01882309F453C1853239F493FD44
:100A3000859193FF81913F01853229F4B70190E0C0
:100A40000E94E806E7CF912C212C312CFFE1F31511
:100A500038F08B3211F190F4803209F1833229F1B0
:100A600037FC3CC020ED280F2A3050F536FE20C060
:100A70008AE0989E200D1124922E06C08D3291F0AE
:100A8000803371F7689430F8F30193FD859193FFFB
:100A900081913F018111DACF21C0689431F86894C7
:100AA00032F8F2CF689433F8EFCF689434F8ECCF93
:100AB000EAE02E9E200D1124222E689435F8E4CF12
:100AC0008E3229F436FC04C1689436F8DDCF8C36BA
:100AD00019F4689437F8D8CF8836B1F2982F9F7DF3
:100AE00095549330E0F08336A1F18337C1F183351B
:100AF00009F063C02801F2E04F0E511CF801C080DC
:100B0000D180692D70E036FC02C06FEF7FEFC60127
:100B10000E94D2064C01689437F882010AC00C5F2B
:100B20001F4FFFE3F98388248394912C6501E89497
:100B300037F833FE2DC0522C8114910471F55520E5
:100B400009F468CFB70180E290E00E94E8065A9469
:100B5000F6CFF801808189830E5F1F4FE4CF280113
:100B6000F2E04F0E511CF801C080D180692D70E079
:100B700036FC02C06FEF7FEFC6010E94DD064C011C
:100B80008201D5CFB70180E290E00E94E8062A9466
:100B90002814190409F0B0F7CECFF60137FC85917F
:100BA00037FE81916F01B70190E00E94E806511075
:100BB0005A94F1E08F1A9108BFCF843619F0893624
:100BC00009F077C0F80137FE6BC0608171818281C6
:100BD00093810C5F1F4FF32DFF763F2E97FF09C0C7
:100BE00090958095709561957F4F8F4F9F4F68943A
:100BF00037F82AE030E0A5010E941807C82ECA186D
:100C00008C2C432C36FE0CC0E89440F8C91440F4F8
:100C100034FE05C032FC03C0F32DFE7E4F2E892C1E
:100C200044FE95C0FE01EC0DF11D8081803309F07A
:100C300087C0242D297E422E842D8870582E43FC97
:100C400095C040FE8FC09C2C821418F42C0C922C62
:100C5000981844FE91C0B70180E390E00E94E80636
:100C600042FE09C088E790E041FE02C088E590E0BE
:100C7000B7010E94E806C91408F48AC0CA94D12CAE
:100C80009FEFC91AD90ACA0CDB1CF60182916F01C9
:100C9000B70190E00E94E806AC14BD04B1F74FCF55
:100CA00060817181072E000C880B990B0E5F1F4F1E
:100CB00092CFD32CE894D4F82AE030E0853739F18C
:100CC000232D297FD22E8F3601F148F48835A9F0E3
:100CD000F701868197812B96E2E10C949207803789
:100CE00049F08837A9F7D4FE02C06894D2F820E111
:100CF00030E00DC06894D4F8F6CF34FE03C0822FE4
:100D00008660D82E20E132E002C028E030E0F80111
:100D1000D7FE0FC060817181828193810C5F1F4F6C
:100D2000A5010E941807C82ECA183D2CE89437F870
:100D300067CF6081718190E080E00E5F1F4FF0CF40
:100D400042FC02C0839478CF8394839475CF842D22
:100D5000867809F471CFF6CFB70180E290E00E9467
:100D6000E80683948214C0F3512C73CF522C581888
:100D7000821408F46ECFF8CF842D867809F47BCFE7
:100D80008BE241FE80E247FC8DE2B70190E071CF3B
:100D9000B70180E390E00E94E8069A946CCF8FEF51
:100DA0009FEF99CFFC010590615070400110D8F77A
:100DB000809590958E0F9F1F0895FC0161507040A3
:100DC00001900110D8F7809590958E0F9F1F089580
:100DD0000F931F93CF93DF93182F092FEB018B8174
:100DE00081FD09C01FEF0FEF812F902FDF91CF9171
:100DF0001F910F91089582FF14C02E813F818C8135
:100E00009D81281739073CF4E881F981CF010196CB
:100E10009983888310838E819F8101969F838E831F
:100E2000E3CFE885F985812F0995892BA1F3DACFE6
:100E3000FA01AA27283051F1203181F1E8946F930B
:100E40006E7F6E5F7F4F8F4F9F4FAF4FB1E03ED0B1
:100E5000B4E03CD0670F781F891F9A1FA11D680F4F
:100E6000791F8A1F911DA11D6A0F711D811D911D82
:100E7000A11D20D009F468943F912AE0269F1124F7
:100E80003019305D3193DEF6CF010895462F47705B
:100E9000405D4193B3E00FD0C9F7F6CF462F4F70B6
:100EA000405D4A3318F0495D31FD4052419302D014
:100EB000A9F7EACFB4E0A6959795879577956795BA
:100EC000BA95C9F700976105710508959B01AC01BA
:100ED0000A2E06945795479537952795BA95C9F7E1
:100EE000620F731F841F951FA01D08952F923F92BC
:100EF0004F925F926F927F928F929F92AF92BF922A
:100F0000CF92DF92EF92FF920F931F93CF93DF93D5
:100F1000CDB7DEB7CA1BDB0B0FB6F894DEBF0FBE32
:100F2000CDBF09942A88398848885F846E847D847F
:100F30008C849B84AA84B984C884DF80EE80FD8081
:100F40000C811B81AA81B981CE0FD11D0FB6F894F7
:0E0F5000DEBF0FBECDBFED010895F894FFCFB8
:100F5E00020407080C50696E206C6F773A202564E6
:100F6E000050696E20686967683A202564000000A9
:100F7E0000009101CF023201710104011E01100126
:040F8E000D0A000048
:00000001FF
