:100000000C9462000C948A000C948A000C948A0070
:100010000C948A000C948A000C948A000C948A0038
:100020000C948A000C948A000C948A000C948A0028
:100030000C948A000C948A000C948A000C948A0018
:100040000C94D6030C948A000C9424020C9456024F
:100050000C948A000C948A000C948A000C948A00F8
:100060000C948A000C948A00000000080002010031
:100070000003040700000000000000000102040863
:100080001020408001020408102001020408102002
:10009000040404040404040402020202020203032E
:1000A00003030303000000002300260029000000D2
:1000B0000000250028002B0000000000240027007D
:1000C0002A00860211241FBECFEFD8E0DEBFCDBFCD
:1000D00011E0A0E0B1E0E2E8FAE002C005900D9284
:1000E000AC33B107D9F721E0ACE3B1E001C01D9218
:1000F000A83EB207E1F710E0C2E6D0E004C02197C5
:10010000FE010E943905C136D107C9F70E94C70315
:100110000C943F050C94000062E088E00E94840487
:1001200061E082E00E94840426E040E855E260E05D
:1001300070E082E491E00C94C20188E00E94EE0439
:1001400090933F0180933E0120913C0130913D010D
:100150008217930709F1892BA1F5809140019091B5
:1001600041010196909341018093400160E071E06C
:1001700082E491E00E9402036AE071E082E491E08F
:100180000E94EF0260914001709141014AE050E00D
:1001900082E491E00E94B40380913E0190913F017E
:1001A00090933D0180933C018091400190914101E9
:1001B0008370992761E0892B09F060E082E00C945C
:1001C000C00462E271E082E491E00E940203E4CFA5
:1001D000FC01918D228D892F90E0805C9F4F821BC6
:1001E00091098F7399270895FC01918D828D98173D
:1001F00031F0828DE80FF11D858D90E008958FEF2D
:100200009FEF0895FC01918D828D981761F0A28D6A
:10021000AE0FBF2FB11D5D968C91928D9F5F9F7326
:10022000928F90E008958FEF9FEF0895FC01538D1A
:10023000448D252F30E0842F90E0821B930B5417C0
:1002400010F0CF960895019708958CE792E0892BDE
:1002500049F080E090E0892B29F00E947C02811116
:100260000C9400000895FC01A48DA80FB92FB11DB6
:10027000A35ABF4F2C91848D90E001968F739927DC
:10028000848FA689B7892C93A089B1898C918370BA
:1002900080648C93938D848D981306C00288F389B3
:1002A000E02D80818F7D80830895CF93DF93EC01D3
:1002B000888D8823B9F0AA89BB89E889F9898C914E
:1002C00085FD03C0808186FD0DC00FB607FCF7CF0A
:1002D0008C9185FFF2CF808185FFEDCFCE010E940A
:1002E0003301E9CFDF91CF910895EF92FF920F9301
:1002F0001F93CF93DF93EC0181E0888F9B8D8C8DD2
:1003000098131AC0E889F989808185FF15C09FB7C5
:10031000F894EE89FF896083E889F9898081837088
:10032000806480839FBF81E090E0DF91CF911F9137
:100330000F91FF90EF900895F62E0B8D10E00F5F58
:100340001F4F0F731127E02E8C8D8E110CC00FB62E
:1003500007FCFACFE889F989808185FFF5CFCE01C6
:100360000E943301F1CFEB8DEC0FFD2FF11DE35A0D
:10037000FF4FF0829FB7F8940B8FEA89FB89808149
:100380008062CFCFCF92DF92EF92FF921F93CF93F5
:10039000DF93EC016A017B01122FE889F98982E081
:1003A0008083C11481EED806E104F104A1F060E07D
:1003B00079E08DE390E0A70196010E941705215096
:1003C00031094109510956954795379527952115CA
:1003D00080E1380798F0E889F989108260E874E8CC
:1003E0008EE190E0A70196010E9417052150310986
:1003F000410951095695479537952795EC85FD8517
:100400003083EE85FF852083188EEC89FD8910836B
:10041000EA89FB89808180618083EA89FB89808108
:1004200088608083EA89FB89808180688083EA898B
:10043000FB8980818F7D8083DF91CF911F91FF9019
:10044000EF90DF90CF9008951F920F920FB60F920A
:1004500011242F938F939F93EF93FF93E091520179
:10046000F09153018081E0915801F091590182FD92
:100470001BC0908180915B018F5F8F7320915C0125
:10048000821741F0E0915B01F0E0EE5BFE4F958F4B
:1004900080935B01FF91EF919F918F912F910F902E
:1004A0000FBE0F901F9018958081F4CF1F920F926E
:1004B0000FB60F9211242F933F934F935F936F9337
:1004C0007F938F939F93AF93BF93EF93FF9382E4B8
:1004D00091E00E943301FF91EF91BF91AF919F9105
:1004E0008F917F916F915F914F913F912F910F90DD
:1004F0000FBE0F901F90189582E491E00E94E800D3
:1005000021E0892B09F420E0822F0895E2E4F1E054
:100510001382128288EE93E0A0E0B0E0848395839A
:10052000A683B7838AE291E09183808385EC90E093
:100530009587848784EC90E09787868780EC90E0AD
:10054000918B808B81EC90E0938B828B82EC90E09E
:10055000958B848B86EC90E0978B868B118E128E18
:10056000138E148E0895AF92BF92CF92DF92EF92C6
:10057000FF920F931F93CF93DF936C017B018B014D
:10058000040F151FEB015E01AE18BF08C017D1079D
:1005900059F06991D601ED91FC910190F081E02D27
:1005A000C6010995892B79F7C501DF91CF911F917C
:1005B0000F91FF90EF90DF90CF90BF90AF90089594
:1005C000FB0101900020E9F73197AF01461B570B63
:1005D000DC01ED91FC910280F381E02D099461151D
:1005E000710511F00C94E00290E080E00895DC01C8
:1005F000ED91FC910190F081E02D099468E371E0A8
:100600000C94E0020F931F93CF93DF938C01D0E003
:10061000C0E06115710519F00E94E002EC01C8010B
:100620000E94FE028C0F9D1FDF91CF911F910F91B1
:1006300008958F929F92AF92BF92EF92FF920F9385
:100640001F93CF93DF93CDB7DEB7A1970FB6F89482
:10065000DEBF0FBECDBF7C01FA01CB0119A2223053
:1006600008F42AE08E010F5D1F4F822E912CB12CD1
:10067000A12CBF01A50194010E941705F901CA012F
:100680006A300CF5605DD8016E938D01232B242B0D
:10069000252B79F790E080E0109721F0BD01C7018C
:1006A0000E94E002A1960FB6F894DEBF0FBECDBF48
:1006B000DF91CF911F910F91FF90EF90BF90AF907E
:1006C0009F908F900895695CDECFCF92DF92EF927A
:1006D000FF920F931F93CF93DF932115310581F480
:1006E000DC01ED91FC910190F081E02D642FDF9110
:1006F000CF911F910F91FF90EF90DF90CF900994D1
:100700002A30310501F52AE077FF1DC06A017B011F
:10071000EC016DE20E94F7028C0144275527BA01D3
:100720004C195D096E097F092AE0CE010E94190368
:10073000800F911FDF91CF911F910F91FF90EF904C
:10074000DF90CF900895DF91CF911F910F91FF908F
:10075000EF90DF90CF900C9419039A01AB01770FC3
:10076000660B770B0C9465030F931F93CF93DF9366
:10077000EC010E94AD038C01CE010E94FE02800FAD
:10078000911FDF91CF911F910F91089508950E94BD
:1007900020040E94C6030E948C00C5E2D1E00E94A2
:1007A0009D002097E1F30E942501F9CF1F920F923F
:1007B0000FB60F9211242F933F938F939F93AF9374
:1007C000BF938091E0019091E101A091E201B0918D
:1007D000E3013091DF0123E0230F2D3758F5019617
:1007E000A11DB11D2093DF018093E0019093E101F1
:1007F000A093E201B093E3018091E4019091E501BF
:10080000A091E601B091E7010196A11DB11D809371
:10081000E4019093E501A093E601B093E701BF9155
:10082000AF919F918F913F912F910F900FBE0F909D
:100830001F90189526E8230F0296A11DB11DD2CF57
:10084000789484B5826084BD84B5816084BD85B5AB
:10085000826085BD85B5816085BDEEE6F0E0808172
:1008600081608083E1E8F0E0108280818260808393
:10087000808181608083E0E8F0E080818160808316
:10088000E1EBF0E0808184608083E0EBF0E0808148
:1008900081608083EAE7F0E08081846080838081EA
:1008A0008260808380818160808380818068808392
:1008B0001092C1000895833081F028F4813099F0BE
:1008C0008230A9F008958730A9F08830C9F08430CB
:1008D000B1F4809180008F7D03C0809180008F777C
:1008E00080938000089584B58F7784BD089584B582
:1008F0008F7DFBCF8091B0008F778093B0000895FB
:100900008091B0008F7DF9CFCF93DF9390E0FC0111
:10091000E458FF4F249180579F4FFC018491882316
:10092000C9F090E0880F991FFC01E854FF4FA59192
:10093000B491FC01E255FF4FC591D49161110DC0F6
:100940009FB7F8948C91209582238C9388812823DB
:1009500028839FBFDF91CF910895623051F49FB7F4
:10096000F8943C91822F809583238C93E8812E2BE1
:10097000EFCF8FB7F894EC912E2B2C938FBFEACF4B
:100980001F93CF93DF93282F30E0F901E859FF4FF1
:100990008491F901E458FF4FD491F901E057FF4FDA
:1009A000C491CC23A9F0162F81110E945B04EC2F77
:1009B000F0E0EE0FFF1FE255FF4FA591B4918FB706
:1009C000F894EC91111108C0D095DE23DC938FBF11
:1009D000DF91CF911F910895DE2BF8CFCF93DF9356
:1009E000282F30E0F901E859FF4F8491F901E458CC
:1009F000FF4FD491F901E057FF4FC491CC23A1F0F0
:100A000081110E945B04EC2FF0E0EE0FFF1FEC550C
:100A1000FF4FA591B491EC91ED2381E090E009F4B2
:100A200080E0DF91CF91089580E090E0FACFA1E2DD
:100A30001A2EAA1BBB1BFD010DC0AA1FBB1FEE1F58
:100A4000FF1FA217B307E407F50720F0A21BB30BA3
:100A5000E40BF50B661F771F881F991F1A9469F71F
:100A600060957095809590959B01AC01BD01CF017B
:100A70000895EE0FFF1F0590F491E02D0994F8946E
:020A8000FFCFA6
:100A820044616E67206E68616E00536F206C616E08
:100A9200206E68616E20627574746F6E206C613AAC
:100AA20020006F666600000000007501B3021601A7
:0C0AB2005501E8000201F4000D0A0000EC
:00000001FF
