:100000000C9461000C947E000C947E000C947E0095
:100010000C947E000C947E000C947E000C947E0068
:100020000C947E000C947E000C947E000C947E0058
:100030000C947E000C947E000C947E000C947E0048
:100040000C94A6000C947E000C947E000C947E0010
:100050000C947E000C947E000C947E000C947E0028
:100060000C947E000C947E00000000080002010049
:100070000003040700000000000000000102040863
:100080001020408001020408102001020408102002
:10009000040404040404040402020202020203032E
:1000A00003030303000000002300260029000000D2
:1000B0000000250028002B0000000000240027007D
:1000C0002A0011241FBECFEFD8E0DEBFCDBF11E064
:1000D000A0E0B1E0E2EDF3E002C005900D92A430A3
:1000E000B107D9F721E0A4E0B1E001C01D92AD3025
:1000F000B207E1F70E9497000C94E7010C9400000E
:1001000060E0809102010E94540161E08091000151
:100110000C945401809102010E94BE0161E001979C
:1001200009F060E0809100010C94900108950E9414
:10013000F0000E9496000E948000C0E0D0E00E9483
:100140008A002097E1F30E940000F9CF1F920F92DE
:100150000FB60F9211242F933F938F939F93AF93DA
:10016000BF938091050190910601A0910701B09184
:1001700008013091040123E0230F2D3758F5019633
:10018000A11DB11D209304018093050190930601E8
:10019000A0930701B09308018091090190910A0191
:1001A000A0910B01B0910C010196A11DB11D80938E
:1001B000090190930A01A0930B01B0930C01BF9128
:1001C000AF919F918F913F912F910F900FBE0F9004
:1001D0001F90189526E8230F0296A11DB11DD2CFBE
:1001E000789484B5826084BD84B5816084BD85B512
:1001F000826085BD85B5816085BDEEE6F0E08081D9
:1002000081608083E1E8F0E01082808182608083F9
:10021000808181608083E0E8F0E08081816080837C
:10022000E1EBF0E0808184608083E0EBF0E08081AE
:1002300081608083EAE7F0E0808184608083808150
:1002400082608083808181608083808180688083F8
:100250001092C1000895833081F028F4813099F024
:100260008230A9F008958730A9F08830C9F0843031
:10027000B1F4809180008F7D03C0809180008F77E2
:1002800080938000089584B58F7784BD089584B5E8
:100290008F7DFBCF8091B0008F778093B000089561
:1002A0008091B0008F7DF9CFCF93DF9390E0FC0178
:1002B000E458FF4F249180579F4FFC01849188237D
:1002C000C9F090E0880F991FFC01E854FF4FA591F9
:1002D000B491FC01E255FF4FC591D49161110DC05D
:1002E0009FB7F8948C91209582238C938881282342
:1002F00028839FBFDF91CF910895623051F49FB75B
:10030000F8943C91822F809583238C93E8812E2B47
:10031000EFCF8FB7F894EC912E2B2C938FBFEACFB1
:100320001F93CF93DF93282F30E0F901E859FF4F57
:100330008491F901E458FF4FD491F901E057FF4F40
:10034000C491CC23A9F0162F81110E942B01EC2F10
:10035000F0E0EE0FFF1FE255FF4FA591B4918FB76C
:10036000F894EC91111108C0D095DE23DC938FBF77
:10037000DF91CF911F910895DE2BF8CFCF93DF93BC
:10038000282F30E0F901E859FF4F8491F901E45832
:10039000FF4FD491F901E057FF4FC491CC23A1F056
:1003A00081110E942B01EC2FF0E0EE0FFF1FEC55A6
:1003B000FF4FA591B491EC91ED2381E090E009F419
:1003C00080E0DF91CF91089580E090E0FACFF8943B
:0203D000FFCF5D
:0403D200020008001D
:00000001FF
